:100000000C9434000C9451000C9451000C94510049
:100010000C9451000C9451000C9451000C9451001C
:100020000C9451000C9451000C9451000C94EB0072
:100030000C9451000C9451000C9451000C945100FC
:100040000C9451000C9451000C9451000C945100EC
:100050000C9451000C9451000C9451000C945100DC
:100060000C9451000C94510011241FBECFEFD8E026
:10007000DEBFCDBF11E0A0E0B1E0E8EAFBE002C0E6
:1000800005900D92A432B107D9F711E0A4E2B1E0D6
:1000900001C01D92AB32B107E1F70E9440010C9400
:1000A000D2050C9400009BB19F709BB99BB18295C7
:1000B000807F982B9BB9299A299A299808951F9394
:1000C000182F289A82958F700E945300812F0E94CA
:1000D000530080E49FE10197F1F71F910895CF93BA
:1000E000DF93EC0102C00E945F0089918823D9F759
:1000F000DF91CF9108951F93182F289882958F70C4
:100100000E945300812F0E94530080E49FE10197D9
:10011000F1F71F910895882319F4862F805802C0A3
:10012000862F80540E947B00089584B1836084B937
:100130008AB1806F8AB980E69AEE0197F1F780E381
:100140000E94530080E29EE40197F1F780E30E9451
:10015000530080EE91E00197F1F780E30E94530095
:1001600080E20E94530080E49FE10197F1F788E26A
:100170000E947B008FE00E947B00089596B121E0F1
:1001800030E002C0220F331F8A95E2F7922371F408
:1001900080E29EE40197F1F786B190E082239323F9
:1001A000892BD1F380E29EE40197F1F70895A1E84D
:1001B000B0E08C9188608C93EFE6F0E08081826003
:1001C000808388EA91E690938900809388008C91DF
:1001D00083608C9308951F920F920FB60F92112493
:1001E0008F939F9380912A018150833008F041C002
:1001F0008091280190912901019690932901809383
:10020000280180912801909129010A9768F0809136
:10021000240190912501019690932501809324015A
:1002200010922901109228018091240190912501BA
:100230000A9768F08091260190912701019690938A
:1002400027018093260110922501109224018091AC
:10025000260190912701069760F0109229011092D3
:10026000280110922501109224011092270110926A
:1002700026019F918F910F900FBE0F901F901895A0
:100280004F925F926F927F928F929F92AF92BF92A6
:10029000CF92DF92EF92FF920F931F93DF93CF9352
:1002A000CDB7DEB7AA970FB6F894DEBF0FBECDBFAD
:1002B0000E9495000E94D70088B1846188B96DB70B
:1002C0007EB7685070400FB6F8947EBF0FBE6DBF0A
:1002D000EDB7FEB731968E010F5F1F4FADB7BEB7BA
:1002E00012961C930E9311978CE0C82ED12CD382BA
:1002F000C282B0E0EB2EB1E0FB2EF582E48283E017
:1003000091E0978386830E94ED026DB77EB7685FA8
:100310007F4F0FB6F8947EBF0FBE6DBF80E060E0E8
:100320000E948B00C8010E946F008DB79EB708978E
:100330000FB6F8949EBF0FBE8DBFEDB7FEB73196D6
:10034000ADB7BEB712961C930E931197D382C2829B
:10035000F582E4828FE091E0978386830E94ED022C
:100360006DB77EB7685F7F4F0FB6F8947EBF0FBE44
:100370006DBF81E060E00E948B00C8010E946F00A9
:1003800080E197E220E931E0F9013197F1F7019737
:10039000D9F781E00E947B0078943D9A809181009A
:1003A00083608093810010922A0180E060E00E94C7
:1003B0008B0020912601309127014091240150911A
:1003C000250160912801709129018DB79EB70C9786
:1003D0000FB6F8949EBF0FBE8DBFEDB7FEB7319636
:1003E0008E01035F1F4FADB7BEB712961C930E93DD
:1003F00011978FE090E093838283ABE1EA2EA1E036
:10040000FA2EF582E48237832683518740877387EB
:1004100062870E94ED026DB77EB7645F7F4F0FB6B3
:10042000F8947EBF0FBE6DBFC8010E946F00502EB2
:10043000812E3FE0632E712C9E2CDF2C20E2A22E19
:100440002EE4B22E93E0492ECC24C3948CE1E82E06
:10045000F12CEC0EFD1E96B180912A01882309F043
:100460004CC0292F332727FD309522FD05C0C5013B
:100470000197F1F740922A0124FD70C084E00E94A8
:10048000BE001092270110922601109225011092B1
:100490002401109229011092280180E060E00E945E
:1004A0008B008DB79EB70C970FB6F8949EBF0FBE0A
:1004B0008DBFEDB7FEB73196ADB7BEB711965C9262
:1004C000119712968C92738262829482D5821782DF
:1004D000168211861086138612860E94ED026DB771
:1004E0007EB7645F7F4F0FB6F8947EBF0FBE6DBFBF
:1004F000852D982D0E946F0031C0833031F492FF1A
:100500002DC0C5010197F1F727C08130A1F4092F53
:10051000112707FD109504FD06C084E00E94BE006F
:1005200082E080932A0102FD19C082E00E94BE0091
:1005300010922A0113C0823089F4092F112707FD78
:10054000109502FD04C00E94BE00C0922A0104FD65
:1005500005C084E00E94BE00C0922A0180912A0159
:10056000813019F0833009F076CF80E060E00E949E
:100570008B008091260190912701209124013091D8
:1005800025014091280150912901ADB7BEB71C97B4
:100590000FB6F894BEBF0FBEADBFEDB7FEB7319634
:1005A0001296FC92EE921197738262829482D582A7
:1005B0009783868331872087538742870E94ED0285
:1005C0006DB77EB7645F7F4F0FB6F8947EBF0FBEE6
:1005D0006DBFC7010E946F003ECFAEE0B0E0E3EF19
:1005E000F2E00C94A9050D891E898F89988D97FFDB
:1005F00002C080E090E801979E838D831A8309836F
:1006000086E08C839E01255E3F4FCE010196698D69
:100610007A8DA9010E941E034D815E8157FD0AC09B
:100620002F813885421753070CF49A01020F131FCC
:10063000F80110822E96E4E00C94C505ABE0B0E022
:10064000E4E2F3E00C949B053C012B015A01FC0110
:1006500017821682838181FD03C06FEF7FEFC6C1D1
:100660009AE0892E1E010894211C311CF30123817C
:10067000F20123FD859123FF81912F01882309F445
:10068000B2C1853239F423FD859123FF81912F0179
:10069000853229F490E0B3010E941105E7CF982F2D
:1006A000FF24EE249924FFE1FF15D0F09B3269F07E
:1006B0009C3228F4903259F0933291F40EC09D325E
:1006C00049F0903369F441E024C052E0F52A84E017
:1006D000F82A28C098E0F92A25C0E0E1FE2A22C0C5
:1006E000F7FC29C0892F80538A3070F4F6FE05C0CC
:1006F000989C902C1124980E15C0E89CE02C112495
:10070000E80EF0E2FF2A0EC09E3229F4F6FC6BC11F
:1007100040E4F42A07C09C3619F450E8F52A02C0D8
:10072000983649F4F20123FD959123FF91912F0111
:10073000992309F0B8CF892F8554833018F080525F
:10074000833038F444E050E0A40EB51E5FE35983D3
:100750000FC0933631F0933779F0933509F056C0D6
:1007600020C0F5018081898342E050E0A40EB51ECF
:10077000610101E010E012C0F501C080D180F6FCFB
:1007800003C06FEF7FEF02C0692D70E042E050E0E0
:10079000A40EB51EC6010E9406058C015FE7F52276
:1007A00014C0F501C080D180F6FC03C06FEF7FEF6D
:1007B00002C0692D70E042E050E0A40EB51EC601F3
:1007C0000E94FB048C0150E8F52AF3FE07C01AC012
:1007D00080E290E0B3010E941105EA948E2D90E032
:1007E00008171907A8F30EC0F601F7FC8591F7FE6C
:1007F00081916F0190E0B3010E941105E110EA942C
:10080000015010400115110579F7EAC0943611F036
:10081000993669F5F7FE08C0F501208131814281E2
:10082000538184E090E00AC0F501808191819C01B0
:10083000442737FD4095542F82E090E0A80EB91E62
:100840009FE6F92257FF09C05095409530952195B4
:100850003F4F4F4F5F4FE0E8FE2ACA01B901A101A7
:100860002AE030E00E943D05D82ED21840C09537CE
:1008700029F41F2D1F7E2AE030E01DC01F2D197F97
:100880009F3661F0903720F4983509F0ACC00FC066
:10089000903739F0983709F0A6C004C028E030E05E
:1008A0000AC0106114FD146020E130E004C014FDA2
:1008B000166020E132E017FF08C0F5016081718108
:1008C0008281938144E050E008C0F50180819181EC
:1008D000BC0180E090E042E050E0A40EB51EA10112
:1008E0000E943D05D82ED2188FE7F82EF122F6FE91
:1008F0000BC05EEFF522D91438F4F4FE07C0F2FC09
:1009000005C08FEEF82202C01D2D01C0192DF4FE86
:100910000DC0FE01ED0DF11D8081803319F499EEBB
:10092000F92208C01F5FF2FE05C003C08F2D867834
:1009300009F01F5F0F2DF3FC14C0F0FE0FC01E1551
:1009400010F09D2C0BC09D2C9E0C911A1E2D06C0E4
:1009500080E290E0B3010E9411051F5F1E15C0F3F5
:1009600004C01E1510F4E11A01C0EE2404FF0FC0EC
:1009700080E390E0B3010E94110502FF1DC001FD5C
:1009800003C088E790E00EC088E590E00BC0802FA0
:10099000867891F001FF02C08BE201C080E2F7FC93
:1009A0008DE290E0B3010E94110506C080E390E063
:1009B000B3010E9411059A94D914C0F3DA94F1019D
:1009C000ED0DF11D808190E0B3010E941105DD2045
:1009D000A9F706C080E290E0B3010E941105EA94F5
:1009E000EE20C1F743CEF30166817781CB012B96D0
:1009F000E2E10C94B705FC010590615070400110D4
:100A0000D8F7809590958E0F9F1F0895FC01615037
:100A1000704001900110D8F7809590958E0F9F1F20
:100A200008950F931F93CF93DF938C01EB018B817C
:100A300081FF1BC082FF0DC02E813F818C819D8173
:100A40002817390764F4E881F9810193F983E88371
:100A500006C0E885F985802F0995892B31F48E81B0
:100A60009F8101969F838E8302C00FEF1FEFC80105
:100A7000DF91CF911F910F910895FA01AA27283095
:100A800051F1203181F1E8946F936E7F6E5F7F4F5B
:100A90008F4F9F4FAF4FB1E03ED0B4E03CD0670FD7
:100AA000781F891F9A1FA11D680F791F8A1F911D2A
:100AB000A11D6A0F711D811D911DA11D20D009F47A
:100AC00068943F912AE0269F11243019305D3193BC
:100AD000DEF6CF010895462F4770405D4193B3E0A5
:100AE0000FD0C9F7F6CF462F4F70405D4A3318F04C
:100AF000495D31FD4052419302D0A9F7EACFB4E0FD
:100B0000A6959795879577956795BA95C9F70097B4
:100B10006105710508959B01AC010A2E0694579555
:100B2000479537952795BA95C9F7620F731F841FAC
:100B3000951FA01D08952F923F924F925F926F9242
:100B40007F928F929F92AF92BF92CF92DF92EF925D
:100B5000FF920F931F93CF93DF93CDB7DEB7CA1BDE
:100B6000DB0B0FB6F894DEBF0FBECDBF09942A8809
:100B7000398848885F846E847D848C849B84AA84B1
:100B8000B984C884DF80EE80FD800C811B81AA813E
:100B9000B981CE0FD11D0FB6F894DEBF0FBECDBF09
:080BA000ED010895F894FFCF68
:100BA8002573004545313039204C61622036004AB2
:100BB80061736F6E204A6F73686900256425642E1F
:040BC80025640000A0
:00000001FF
